{
  "contractName": "ProxyFactory",
  "abi": [
    {
      "anonymous": false,
      "inputs": [
        {
          "indexed": false,
          "internalType": "contract Proxy",
          "name": "proxy",
          "type": "address"
        }
      ],
      "name": "ProxyCreation",
      "type": "event"
    },
    {
      "constant": false,
      "inputs": [
        {
          "internalType": "address",
          "name": "masterCopy",
          "type": "address"
        },
        {
          "internalType": "bytes",
          "name": "data",
          "type": "bytes"
        }
      ],
      "name": "createProxy",
      "outputs": [
        {
          "internalType": "contract Proxy",
          "name": "proxy",
          "type": "address"
        }
      ],
      "payable": false,
      "stateMutability": "nonpayable",
      "type": "function"
    },
    {
      "constant": true,
      "inputs": [],
      "name": "proxyRuntimeCode",
      "outputs": [
        {
          "internalType": "bytes",
          "name": "",
          "type": "bytes"
        }
      ],
      "payable": false,
      "stateMutability": "pure",
      "type": "function"
    },
    {
      "constant": true,
      "inputs": [],
      "name": "proxyCreationCode",
      "outputs": [
        {
          "internalType": "bytes",
          "name": "",
          "type": "bytes"
        }
      ],
      "payable": false,
      "stateMutability": "pure",
      "type": "function"
    },
    {
      "constant": false,
      "inputs": [
        {
          "internalType": "address",
          "name": "_mastercopy",
          "type": "address"
        },
        {
          "internalType": "bytes",
          "name": "initializer",
          "type": "bytes"
        },
        {
          "internalType": "uint256",
          "name": "saltNonce",
          "type": "uint256"
        }
      ],
      "name": "createProxyWithNonce",
      "outputs": [
        {
          "internalType": "contract Proxy",
          "name": "proxy",
          "type": "address"
        }
      ],
      "payable": false,
      "stateMutability": "nonpayable",
      "type": "function"
    },
    {
      "constant": false,
      "inputs": [
        {
          "internalType": "address",
          "name": "_mastercopy",
          "type": "address"
        },
        {
          "internalType": "bytes",
          "name": "initializer",
          "type": "bytes"
        },
        {
          "internalType": "uint256",
          "name": "saltNonce",
          "type": "uint256"
        }
      ],
      "name": "calculateCreateProxyWithNonceAddress",
      "outputs": [
        {
          "internalType": "contract Proxy",
          "name": "proxy",
          "type": "address"
        }
      ],
      "payable": false,
      "stateMutability": "nonpayable",
      "type": "function"
    }
  ],
  "bytecode": "0x608060405234801561001057600080fd5b50610c32806100206000396000f3fe608060405234801561001057600080fd5b50600436106100575760003560e01c80631688f0b91461005c5780632500510e1461018157806353e5d9351461026457806361b69abd146102e7578063addacc0f14610402575b600080fd5b61013f6004803603606081101561007257600080fd5b81019080803573ffffffffffffffffffffffffffffffffffffffff169060200190929190803590602001906401000000008111156100af57600080fd5b8201836020820111156100c157600080fd5b803590602001918460018302840111640100000000831117156100e357600080fd5b91908080601f016020809104026020016040519081016040528093929190818152602001838380828437600081840152601f19601f82011690508083019250505050505050919291929080359060200190929190505050610485565b604051808273ffffffffffffffffffffffffffffffffffffffff1673ffffffffffffffffffffffffffffffffffffffff16815260200191505060405180910390f35b6102226004803603606081101561019757600080fd5b81019080803573ffffffffffffffffffffffffffffffffffffffff169060200190929190803590602001906401000000008111156101d457600080fd5b8201836020820111156101e657600080fd5b8035906020019184600183028401116401000000008311171561020857600080fd5b909192939192939080359060200190929190505050610524565b604051808273ffffffffffffffffffffffffffffffffffffffff1673ffffffffffffffffffffffffffffffffffffffff16815260200191505060405180910390f35b61026c610667565b6040518080602001828103825283818151815260200191508051906020019080838360005b838110156102ac578082015181840152602081019050610291565b50505050905090810190601f1680156102d95780820380516001836020036101000a031916815260200191505b509250505060405180910390f35b6103c0600480360360408110156102fd57600080fd5b81019080803573ffffffffffffffffffffffffffffffffffffffff1690602001909291908035906020019064010000000081111561033a57600080fd5b82018360208201111561034c57600080fd5b8035906020019184600183028401116401000000008311171561036e57600080fd5b91908080601f016020809104026020016040519081016040528093929190818152602001838380828437600081840152601f19601f820116905080830192505050505050509192919290505050610692565b604051808273ffffffffffffffffffffffffffffffffffffffff1673ffffffffffffffffffffffffffffffffffffffff16815260200191505060405180910390f35b61040a610785565b6040518080602001828103825283818151815260200191508051906020019080838360005b8381101561044a57808201518184015260208101905061042f565b50505050905090810190601f1680156104775780820380516001836020036101000a031916815260200191505b509250505060405180910390f35b60006104928484846107b0565b90506000835111156104ba5760008060008551602087016000865af114156104b957600080fd5b5b7fa38789425dbeee0239e16ff2d2567e31720127fbc6430758c1a4efc6aef29f8081604051808273ffffffffffffffffffffffffffffffffffffffff1673ffffffffffffffffffffffffffffffffffffffff16815260200191505060405180910390a19392505050565b60006105758585858080601f016020809104026020016040519081016040528093929190818152602001838380828437600081840152601f19601f82011690508083019250505050505050846107b0565b905080604051602001808273ffffffffffffffffffffffffffffffffffffffff1673ffffffffffffffffffffffffffffffffffffffff1660601b81526014019150506040516020818303038152906040526040517f08c379a00000000000000000000000000000000000000000000000000000000081526004018080602001828103825283818151815260200191508051906020019080838360005b8381101561062c578082015181840152602081019050610611565b50505050905090810190601f1680156106595780820380516001836020036101000a031916815260200191505b509250505060405180910390fd5b60606040518060200161067990610953565b6020820181038252601f19601f82011660405250905090565b6000826040516106a190610953565b808273ffffffffffffffffffffffffffffffffffffffff1673ffffffffffffffffffffffffffffffffffffffff168152602001915050604051809103906000f0801580156106f3573d6000803e3d6000fd5b50905060008251111561071c5760008060008451602086016000865af1141561071b57600080fd5b5b7fa38789425dbeee0239e16ff2d2567e31720127fbc6430758c1a4efc6aef29f8081604051808273ffffffffffffffffffffffffffffffffffffffff1673ffffffffffffffffffffffffffffffffffffffff16815260200191505060405180910390a192915050565b60606040518060200161079790610960565b6020820181038252601f19601f82011660405250905090565b60008083805190602001208360405160200180838152602001828152602001925050506040516020818303038152906040528051906020012090506060604051806020016107fd90610953565b6020820181038252601f19601f820116604052508673ffffffffffffffffffffffffffffffffffffffff166040516020018083805190602001908083835b6020831061085e578051825260208201915060208101905060208303925061083b565b6001836020036101000a038019825116818451168082178552505050505050905001828152602001925050506040516020818303038152906040529050818151826020016000f59250600073ffffffffffffffffffffffffffffffffffffffff168373ffffffffffffffffffffffffffffffffffffffff16141561094a576040517f08c379a00000000000000000000000000000000000000000000000000000000081526004018080602001828103825260138152602001807f437265617465322063616c6c206661696c65640000000000000000000000000081525060200191505060405180910390fd5b50509392505050565b6101e78061096d83390190565b60aa80610b548339019056fe608060405234801561001057600080fd5b506040516101e73803806101e78339818101604052602081101561003357600080fd5b8101908080519060200190929190505050600073ffffffffffffffffffffffffffffffffffffffff168173ffffffffffffffffffffffffffffffffffffffff1614156100ca576040517f08c379a00000000000000000000000000000000000000000000000000000000081526004018080602001828103825260248152602001806101c36024913960400191505060405180910390fd5b806000806101000a81548173ffffffffffffffffffffffffffffffffffffffff021916908373ffffffffffffffffffffffffffffffffffffffff1602179055505060aa806101196000396000f3fe608060405273ffffffffffffffffffffffffffffffffffffffff600054167fa619486e0000000000000000000000000000000000000000000000000000000060003514156050578060005260206000f35b3660008037600080366000845af43d6000803e60008114156070573d6000fd5b3d6000f3fea265627a7a72315820b60e416ab5b1776a202e7d38fd36a140b61213fef7313d22ffbe55790a6fd70764736f6c634300050b0032496e76616c6964206d617374657220636f707920616464726573732070726f7669646564608060405273ffffffffffffffffffffffffffffffffffffffff600054167fa619486e0000000000000000000000000000000000000000000000000000000060003514156050578060005260206000f35b3660008037600080366000845af43d6000803e60008114156070573d6000fd5b3d6000f3fea265627a7a72315820b60e416ab5b1776a202e7d38fd36a140b61213fef7313d22ffbe55790a6fd70764736f6c634300050b0032a265627a7a72315820930cd56c7095febac982c6988c827c2a944c32f6cda3c712b088da4880955cfe64736f6c634300050b0032",
  "source": "pragma solidity ^0.5.3;\nimport \"./Proxy.sol\";\n\n\n/// @title Proxy Factory - Allows to create new proxy contact and execute a message call to the new proxy within one transaction.\n/// @author Stefan George - <stefan@gnosis.pm>\ncontract ProxyFactory {\n\n    event ProxyCreation(Proxy proxy);\n\n    /// @dev Allows to create new proxy contact and execute a message call to the new proxy within one transaction.\n    /// @param masterCopy Address of master copy.\n    /// @param data Payload for message call sent to new proxy contract.\n    function createProxy(address masterCopy, bytes memory data)\n        public\n        returns (Proxy proxy)\n    {\n        proxy = new Proxy(masterCopy);\n        if (data.length > 0)\n            // solium-disable-next-line security/no-inline-assembly\n            assembly {\n                if eq(call(gas, proxy, 0, add(data, 0x20), mload(data), 0, 0), 0) { revert(0, 0) }\n            }\n        emit ProxyCreation(proxy);\n    }\n\n    /// @dev Allows to retrieve the runtime code of a deployed Proxy. This can be used to check that the expected Proxy was deployed.\n    function proxyRuntimeCode() public pure returns (bytes memory) {\n        return type(Proxy).runtimeCode;\n    }\n\n    /// @dev Allows to retrieve the creation code used for the Proxy deployment. With this it is easily possible to calculate predicted address.\n    function proxyCreationCode() public pure returns (bytes memory) {\n        return type(Proxy).creationCode;\n    }\n\n    /// @dev Allows to create new proxy contact using CREATE2 but it doesn't run the initializer.\n    ///      This method is only meant as an utility to be called from other methods\n    /// @param _mastercopy Address of master copy.\n    /// @param initializer Payload for message call sent to new proxy contract.\n    /// @param saltNonce Nonce that will be used to generate the salt to calculate the address of the new proxy contract.\n    function deployProxyWithNonce(address _mastercopy, bytes memory initializer, uint256 saltNonce)\n        internal\n        returns (Proxy proxy)\n    {\n        // If the initializer changes the proxy address should change too. Hashing the initializer data is cheaper than just concatinating it\n        bytes32 salt = keccak256(abi.encodePacked(keccak256(initializer), saltNonce));\n        bytes memory deploymentData = abi.encodePacked(type(Proxy).creationCode, uint256(_mastercopy));\n        // solium-disable-next-line security/no-inline-assembly\n        assembly {\n            proxy := create2(0x0, add(0x20, deploymentData), mload(deploymentData), salt)\n        }\n\trequire(address(proxy) != address(0), \"Create2 call failed\");\n    }\n\n    /// @dev Allows to create new proxy contact and execute a message call to the new proxy within one transaction.\n    /// @param _mastercopy Address of master copy.\n    /// @param initializer Payload for message call sent to new proxy contract.\n    /// @param saltNonce Nonce that will be used to generate the salt to calculate the address of the new proxy contract.\n    function createProxyWithNonce(address _mastercopy, bytes memory initializer, uint256 saltNonce)\n        public\n        returns (Proxy proxy)\n    {\n        proxy = deployProxyWithNonce(_mastercopy, initializer, saltNonce);\n        if (initializer.length > 0)\n            // solium-disable-next-line security/no-inline-assembly\n            assembly {\n                if eq(call(gas, proxy, 0, add(initializer, 0x20), mload(initializer), 0, 0), 0) { revert(0,0) }\n            }\n        emit ProxyCreation(proxy);\n    }\n\n    /// @dev Allows to get the address for a new proxy contact created via `createProxyWithNonce`\n    ///      This method is only meant for address calculation purpose when you use an initializer that would revert,\n    ///      therefore the response is returned with a revert. When calling this method set `from` to the address of the proxy factory.\n    /// @param _mastercopy Address of master copy.\n    /// @param initializer Payload for message call sent to new proxy contract.\n    /// @param saltNonce Nonce that will be used to generate the salt to calculate the address of the new proxy contract.\n    function calculateCreateProxyWithNonceAddress(address _mastercopy, bytes calldata initializer, uint256 saltNonce)\n        external\n        returns (Proxy proxy)\n    {\n        proxy = deployProxyWithNonce(_mastercopy, initializer, saltNonce);\n        revert(string(abi.encodePacked(proxy)));\n    }\n\n}\n",
  "sourcePath": "/home/uxio/gnosis/dev/safe-contracts/contracts/proxies/ProxyFactory.sol",
  "compiler": {
    "name": "solc",
    "version": "0.5.11+commit.c082d0b4.Emscripten.clang"
  },
  "schemaVersion": "2.0.1",
  "updatedAt": "2019-11-12T13:44:11.946Z"
}